{
  "address": "0xdcDB68d061255C8eB92153218441e0E4e820c1C7",
  "abi": [
    {
      "inputs": [
        {
          "internalType": "address",
          "name": "admin",
          "type": "address"
        }
      ],
      "stateMutability": "nonpayable",
      "type": "constructor"
    },
    {
      "anonymous": false,
      "inputs": [
        {
          "indexed": false,
          "internalType": "address",
          "name": "to",
          "type": "address"
        },
        {
          "components": [
            {
              "internalType": "uint256[]",
              "name": "ids",
              "type": "uint256[]"
            },
            {
              "internalType": "uint256[]",
              "name": "values",
              "type": "uint256[]"
            },
            {
              "internalType": "address",
              "name": "contractAddress",
              "type": "address"
            }
          ],
          "indexed": false,
          "internalType": "struct ClaimERC1155ERC721ERC20.ERC1155Claim[]",
          "name": "erc1155",
          "type": "tuple[]"
        },
        {
          "components": [
            {
              "internalType": "uint256[]",
              "name": "ids",
              "type": "uint256[]"
            },
            {
              "internalType": "address",
              "name": "contractAddress",
              "type": "address"
            }
          ],
          "indexed": false,
          "internalType": "struct ClaimERC1155ERC721ERC20.ERC721Claim[]",
          "name": "erc721",
          "type": "tuple[]"
        },
        {
          "components": [
            {
              "internalType": "uint256[]",
              "name": "amounts",
              "type": "uint256[]"
            },
            {
              "internalType": "address[]",
              "name": "contractAddresses",
              "type": "address[]"
            }
          ],
          "indexed": false,
          "internalType": "struct ClaimERC1155ERC721ERC20.ERC20Claim",
          "name": "erc20",
          "type": "tuple"
        },
        {
          "indexed": false,
          "internalType": "bytes32",
          "name": "merkleRoot",
          "type": "bytes32"
        }
      ],
      "name": "ClaimedMultipleTokens",
      "type": "event"
    },
    {
      "anonymous": false,
      "inputs": [
        {
          "indexed": false,
          "internalType": "bytes32",
          "name": "merkleRoot",
          "type": "bytes32"
        },
        {
          "indexed": false,
          "internalType": "uint256",
          "name": "expiryTime",
          "type": "uint256"
        }
      ],
      "name": "NewGiveaway",
      "type": "event"
    },
    {
      "anonymous": false,
      "inputs": [
        {
          "indexed": true,
          "internalType": "bytes32",
          "name": "role",
          "type": "bytes32"
        },
        {
          "indexed": true,
          "internalType": "bytes32",
          "name": "previousAdminRole",
          "type": "bytes32"
        },
        {
          "indexed": true,
          "internalType": "bytes32",
          "name": "newAdminRole",
          "type": "bytes32"
        }
      ],
      "name": "RoleAdminChanged",
      "type": "event"
    },
    {
      "anonymous": false,
      "inputs": [
        {
          "indexed": true,
          "internalType": "bytes32",
          "name": "role",
          "type": "bytes32"
        },
        {
          "indexed": true,
          "internalType": "address",
          "name": "account",
          "type": "address"
        },
        {
          "indexed": true,
          "internalType": "address",
          "name": "sender",
          "type": "address"
        }
      ],
      "name": "RoleGranted",
      "type": "event"
    },
    {
      "anonymous": false,
      "inputs": [
        {
          "indexed": true,
          "internalType": "bytes32",
          "name": "role",
          "type": "bytes32"
        },
        {
          "indexed": true,
          "internalType": "address",
          "name": "account",
          "type": "address"
        },
        {
          "indexed": true,
          "internalType": "address",
          "name": "sender",
          "type": "address"
        }
      ],
      "name": "RoleRevoked",
      "type": "event"
    },
    {
      "inputs": [],
      "name": "DEFAULT_ADMIN_ROLE",
      "outputs": [
        {
          "internalType": "bytes32",
          "name": "",
          "type": "bytes32"
        }
      ],
      "stateMutability": "view",
      "type": "function"
    },
    {
      "inputs": [
        {
          "internalType": "bytes32",
          "name": "merkleRoot",
          "type": "bytes32"
        },
        {
          "internalType": "uint256",
          "name": "expiryTime",
          "type": "uint256"
        }
      ],
      "name": "addNewGiveaway",
      "outputs": [],
      "stateMutability": "nonpayable",
      "type": "function"
    },
    {
      "inputs": [
        {
          "internalType": "bytes32",
          "name": "merkleRoot",
          "type": "bytes32"
        },
        {
          "components": [
            {
              "internalType": "address",
              "name": "to",
              "type": "address"
            },
            {
              "components": [
                {
                  "internalType": "uint256[]",
                  "name": "ids",
                  "type": "uint256[]"
                },
                {
                  "internalType": "uint256[]",
                  "name": "values",
                  "type": "uint256[]"
                },
                {
                  "internalType": "address",
                  "name": "contractAddress",
                  "type": "address"
                }
              ],
              "internalType": "struct ClaimERC1155ERC721ERC20.ERC1155Claim[]",
              "name": "erc1155",
              "type": "tuple[]"
            },
            {
              "components": [
                {
                  "internalType": "uint256[]",
                  "name": "ids",
                  "type": "uint256[]"
                },
                {
                  "internalType": "address",
                  "name": "contractAddress",
                  "type": "address"
                }
              ],
              "internalType": "struct ClaimERC1155ERC721ERC20.ERC721Claim[]",
              "name": "erc721",
              "type": "tuple[]"
            },
            {
              "components": [
                {
                  "internalType": "uint256[]",
                  "name": "amounts",
                  "type": "uint256[]"
                },
                {
                  "internalType": "address[]",
                  "name": "contractAddresses",
                  "type": "address[]"
                }
              ],
              "internalType": "struct ClaimERC1155ERC721ERC20.ERC20Claim",
              "name": "erc20",
              "type": "tuple"
            },
            {
              "internalType": "bytes32",
              "name": "salt",
              "type": "bytes32"
            }
          ],
          "internalType": "struct ClaimERC1155ERC721ERC20.Claim",
          "name": "claim",
          "type": "tuple"
        },
        {
          "internalType": "bytes32[]",
          "name": "proof",
          "type": "bytes32[]"
        }
      ],
      "name": "claimMultipleTokens",
      "outputs": [],
      "stateMutability": "nonpayable",
      "type": "function"
    },
    {
      "inputs": [
        {
          "internalType": "bytes32[]",
          "name": "rootHashes",
          "type": "bytes32[]"
        },
        {
          "components": [
            {
              "internalType": "address",
              "name": "to",
              "type": "address"
            },
            {
              "components": [
                {
                  "internalType": "uint256[]",
                  "name": "ids",
                  "type": "uint256[]"
                },
                {
                  "internalType": "uint256[]",
                  "name": "values",
                  "type": "uint256[]"
                },
                {
                  "internalType": "address",
                  "name": "contractAddress",
                  "type": "address"
                }
              ],
              "internalType": "struct ClaimERC1155ERC721ERC20.ERC1155Claim[]",
              "name": "erc1155",
              "type": "tuple[]"
            },
            {
              "components": [
                {
                  "internalType": "uint256[]",
                  "name": "ids",
                  "type": "uint256[]"
                },
                {
                  "internalType": "address",
                  "name": "contractAddress",
                  "type": "address"
                }
              ],
              "internalType": "struct ClaimERC1155ERC721ERC20.ERC721Claim[]",
              "name": "erc721",
              "type": "tuple[]"
            },
            {
              "components": [
                {
                  "internalType": "uint256[]",
                  "name": "amounts",
                  "type": "uint256[]"
                },
                {
                  "internalType": "address[]",
                  "name": "contractAddresses",
                  "type": "address[]"
                }
              ],
              "internalType": "struct ClaimERC1155ERC721ERC20.ERC20Claim",
              "name": "erc20",
              "type": "tuple"
            },
            {
              "internalType": "bytes32",
              "name": "salt",
              "type": "bytes32"
            }
          ],
          "internalType": "struct ClaimERC1155ERC721ERC20.Claim[]",
          "name": "claims",
          "type": "tuple[]"
        },
        {
          "internalType": "bytes32[][]",
          "name": "proofs",
          "type": "bytes32[][]"
        }
      ],
      "name": "claimMultipleTokensFromMultipleMerkleTree",
      "outputs": [],
      "stateMutability": "nonpayable",
      "type": "function"
    },
    {
      "inputs": [
        {
          "internalType": "address",
          "name": "",
          "type": "address"
        },
        {
          "internalType": "bytes32",
          "name": "",
          "type": "bytes32"
        }
      ],
      "name": "claimed",
      "outputs": [
        {
          "internalType": "bool",
          "name": "",
          "type": "bool"
        }
      ],
      "stateMutability": "view",
      "type": "function"
    },
    {
      "inputs": [
        {
          "internalType": "address",
          "name": "user",
          "type": "address"
        },
        {
          "internalType": "bytes32[]",
          "name": "rootHashes",
          "type": "bytes32[]"
        }
      ],
      "name": "getClaimedStatus",
      "outputs": [
        {
          "internalType": "bool[]",
          "name": "",
          "type": "bool[]"
        }
      ],
      "stateMutability": "view",
      "type": "function"
    },
    {
      "inputs": [
        {
          "internalType": "bytes32",
          "name": "role",
          "type": "bytes32"
        }
      ],
      "name": "getRoleAdmin",
      "outputs": [
        {
          "internalType": "bytes32",
          "name": "",
          "type": "bytes32"
        }
      ],
      "stateMutability": "view",
      "type": "function"
    },
    {
      "inputs": [
        {
          "internalType": "bytes32",
          "name": "role",
          "type": "bytes32"
        },
        {
          "internalType": "address",
          "name": "account",
          "type": "address"
        }
      ],
      "name": "grantRole",
      "outputs": [],
      "stateMutability": "nonpayable",
      "type": "function"
    },
    {
      "inputs": [
        {
          "internalType": "bytes32",
          "name": "role",
          "type": "bytes32"
        },
        {
          "internalType": "address",
          "name": "account",
          "type": "address"
        }
      ],
      "name": "hasRole",
      "outputs": [
        {
          "internalType": "bool",
          "name": "",
          "type": "bool"
        }
      ],
      "stateMutability": "view",
      "type": "function"
    },
    {
      "inputs": [
        {
          "internalType": "address",
          "name": "",
          "type": "address"
        },
        {
          "internalType": "bytes32",
          "name": "",
          "type": "bytes32"
        }
      ],
      "name": "leaves",
      "outputs": [
        {
          "internalType": "bool",
          "name": "",
          "type": "bool"
        }
      ],
      "stateMutability": "view",
      "type": "function"
    },
    {
      "inputs": [
        {
          "internalType": "address",
          "name": "",
          "type": "address"
        },
        {
          "internalType": "address",
          "name": "",
          "type": "address"
        },
        {
          "internalType": "uint256[]",
          "name": "",
          "type": "uint256[]"
        },
        {
          "internalType": "uint256[]",
          "name": "",
          "type": "uint256[]"
        },
        {
          "internalType": "bytes",
          "name": "",
          "type": "bytes"
        }
      ],
      "name": "onERC1155BatchReceived",
      "outputs": [
        {
          "internalType": "bytes4",
          "name": "",
          "type": "bytes4"
        }
      ],
      "stateMutability": "pure",
      "type": "function"
    },
    {
      "inputs": [
        {
          "internalType": "address",
          "name": "",
          "type": "address"
        },
        {
          "internalType": "address",
          "name": "",
          "type": "address"
        },
        {
          "internalType": "uint256",
          "name": "",
          "type": "uint256"
        },
        {
          "internalType": "uint256",
          "name": "",
          "type": "uint256"
        },
        {
          "internalType": "bytes",
          "name": "",
          "type": "bytes"
        }
      ],
      "name": "onERC1155Received",
      "outputs": [
        {
          "internalType": "bytes4",
          "name": "",
          "type": "bytes4"
        }
      ],
      "stateMutability": "pure",
      "type": "function"
    },
    {
      "inputs": [
        {
          "internalType": "address",
          "name": "",
          "type": "address"
        },
        {
          "internalType": "address",
          "name": "",
          "type": "address"
        },
        {
          "internalType": "uint256[]",
          "name": "",
          "type": "uint256[]"
        },
        {
          "internalType": "bytes",
          "name": "",
          "type": "bytes"
        }
      ],
      "name": "onERC721BatchReceived",
      "outputs": [
        {
          "internalType": "bytes4",
          "name": "",
          "type": "bytes4"
        }
      ],
      "stateMutability": "pure",
      "type": "function"
    },
    {
      "inputs": [
        {
          "internalType": "address",
          "name": "",
          "type": "address"
        },
        {
          "internalType": "address",
          "name": "",
          "type": "address"
        },
        {
          "internalType": "uint256",
          "name": "",
          "type": "uint256"
        },
        {
          "internalType": "bytes",
          "name": "",
          "type": "bytes"
        }
      ],
      "name": "onERC721Received",
      "outputs": [
        {
          "internalType": "bytes4",
          "name": "",
          "type": "bytes4"
        }
      ],
      "stateMutability": "pure",
      "type": "function"
    },
    {
      "inputs": [
        {
          "internalType": "bytes32",
          "name": "role",
          "type": "bytes32"
        },
        {
          "internalType": "address",
          "name": "account",
          "type": "address"
        }
      ],
      "name": "renounceRole",
      "outputs": [],
      "stateMutability": "nonpayable",
      "type": "function"
    },
    {
      "inputs": [
        {
          "internalType": "bytes32",
          "name": "role",
          "type": "bytes32"
        },
        {
          "internalType": "address",
          "name": "account",
          "type": "address"
        }
      ],
      "name": "revokeRole",
      "outputs": [],
      "stateMutability": "nonpayable",
      "type": "function"
    },
    {
      "inputs": [
        {
          "internalType": "bytes4",
          "name": "interfaceId",
          "type": "bytes4"
        }
      ],
      "name": "supportsInterface",
      "outputs": [
        {
          "internalType": "bool",
          "name": "",
          "type": "bool"
        }
      ],
      "stateMutability": "view",
      "type": "function"
    }
  ],
  "transactionHash": "0x8cc20d76efaa4609c23c32cd08512f2a85b36b6371c13796b48ef7a7296d6d6b",
  "args": [
    "0x7019523F9f04C4F4e084c39be1049718d48Ee833"
  ],
  "solcInputHash": "468e43ec6aff73cdf581bf7435925473",
  "bytecode": "0x60806040523480156200001157600080fd5b5060405162002591380380620025918339810160408190526200003491620000f8565b6200004160008262000048565b5062000128565b62000054828262000058565b5050565b6000828152602081815260408083206001600160a01b038516845290915290205460ff1662000054576000828152602081815260408083206001600160a01b03851684529091529020805460ff19166001179055620000b43390565b6001600160a01b0316816001600160a01b0316837f2f8788117e7eff1d82e926ec794901d17c78024a50270940304540a733656f0d60405160405180910390a45050565b6000602082840312156200010a578081fd5b81516001600160a01b038116811462000121578182fd5b9392505050565b61245980620001386000396000f3fe608060405234801561001057600080fd5b50600436106100eb5760003560e01c80636aea75f1116100925780636aea75f11461020a57806391d148541461021d578063991d79b014610230578063a217fddf1461025e578063a7d235be14610266578063bc197c8114610286578063c8509332146102a8578063d547741f146102bb578063f23a6e61146102ce57600080fd5b806301ffc9a7146100f05780630f2d940b14610118578063150b7a0214610146578063248a9ca31461017e57806325839ca7146101af5780632f2ff15d146101c457806336568abe146101d75780634b808c46146101ea575b600080fd5b6101036100fe366004611dc1565b6102ee565b60405190151581526020015b60405180910390f35b610103610126366004611baa565b600160209081526000928352604080842090915290825290205460ff1681565b610165610154366004611a8b565b630a85bd0160e11b95945050505050565b6040516001600160e01b0319909116815260200161010f565b6101a161018c366004611cf1565b60009081526020819052604090206001015490565b60405190815260200161010f565b6101c26101bd366004611d34565b610325565b005b6101c26101d2366004611d09565b6105f4565b6101c26101e5366004611d09565b61061f565b6101656101f83660046119fe565b6325c0462360e11b9695505050505050565b6101c2610218366004611da0565b61069d565b61010361022b366004611d09565b6106f9565b61010361023e366004611baa565b600260209081526000928352604080842090915290825290205460ff1681565b6101a1600081565b610279610274366004611b5a565b610722565b60405161010f9190612104565b610165610294366004611948565b63bc197c8160e01b98975050505050505050565b6101c26102b6366004611bd3565b61082c565b6101c26102c9366004611d09565b610950565b6101656102dc366004611af7565b63f23a6e6160e01b9695505050505050565b60006001600160e01b03198216637965db0b60e01b148061031f57506301ffc9a760e01b6001600160e01b03198316145b92915050565b60008481526003602052604090205483516001600160a01b031661038a5760405162461bcd60e51b8152602060048201526017602482015276494e56414c49445f544f5f5a45524f5f4144445245535360481b60448201526064015b60405180910390fd5b83516001600160a01b03163014156103ef5760405162461bcd60e51b815260206004820152602260248201527f44455354494e4154494f4e5f4d554c544947495645415741595f434f4e54524160448201526110d560f21b6064820152608401610381565b806104365760405162461bcd60e51b815260206004820152601760248201527611d255915055d05657d113d154d7d393d517d1561254d5604a1b6044820152606401610381565b80421061047c5760405162461bcd60e51b815260206004820152601460248201527321a620a4a6afa822a924a7a22fa4a9afa7ab22a960611b6044820152606401610381565b83516001600160a01b0316600090815260016020908152604080832088845290915290205460ff16156104f15760405162461bcd60e51b815260206004820152601b60248201527f44455354494e4154494f4e5f414c52454144595f434c41494d454400000000006044820152606401610381565b83516001600160a01b031660009081526001602081815260408084208985528252808420805460ff1916909317909255905161052f918791016121db565b60408051601f19818403018152918152815160209283012087516001600160a01b031660009081526002845282812082825290935291205490915060ff16156105b15760405162461bcd60e51b81526020600482015260146024820152731311505197d053149150511657d0d3105253515160621b6044820152606401610381565b84516001600160a01b031660009081526002602090815260408083208484529091529020805460ff191660011790556105ec86868686610976565b505050505050565b6000828152602081905260409020600101546106108133610c29565b61061a8383610c8d565b505050565b6001600160a01b038116331461068f5760405162461bcd60e51b815260206004820152602f60248201527f416363657373436f6e74726f6c3a2063616e206f6e6c792072656e6f756e636560448201526e103937b632b9903337b91039b2b63360891b6064820152608401610381565b6106998282610d11565b5050565b60006106a98133610c29565b60008381526003602090815260409182902084905581518581529081018490527fcf995c8d29c258a6c2056e0d5ddfa67f3634d25f5eed5dcf65ead06195b1a271910160405180910390a1505050565b6000918252602082815260408084206001600160a01b0393909316845291905290205460ff1690565b60606000826001600160401b0381111561074c57634e487b7160e01b600052604160045260246000fd5b604051908082528060200260200182016040528015610775578160200160208202803683370190505b50905060005b83811015610821576001600160a01b0386166000908152600160205260408120908686848181106107bc57634e487b7160e01b600052603260045260246000fd5b90506020020135815260200190815260200160002060009054906101000a900460ff168282815181106107ff57634e487b7160e01b600052603260045260246000fd5b9115156020928302919091019091015280610819816123dc565b91505061077b565b5090505b9392505050565b600583511061086f5760405162461bcd60e51b815260206004820152600f60248201526e544f4f5f4d414e595f434c41494d5360881b6044820152606401610381565b8251841461088f5760405162461bcd60e51b81526004016103819061217d565b825181146108af5760405162461bcd60e51b81526004016103819061217d565b60005b848110156105ec5761093e8686838181106108dd57634e487b7160e01b600052603260045260246000fd5b9050602002013585838151811061090457634e487b7160e01b600052603260045260246000fd5b602002602001015185858581811061092c57634e487b7160e01b600052603260045260246000fd5b90506020028101906101bd919061225c565b80610948816123dc565b9150506108b2565b60008281526020819052604090206001015461096c8133610c29565b61061a8383610d11565b6109b48484848480806020026020016040519081016040528093929190818152602001838360200280828437600092019190915250610d7692505050565b60005b836020015151811015610af257836020015181815181106109e857634e487b7160e01b600052603260045260246000fd5b6020026020010151602001515184602001518281518110610a1957634e487b7160e01b600052603260045260246000fd5b6020026020010151600001515114610a435760405162461bcd60e51b81526004016103819061217d565b610ae0846000015185602001518381518110610a6f57634e487b7160e01b600052603260045260246000fd5b60200260200101516000015186602001518481518110610a9f57634e487b7160e01b600052603260045260246000fd5b60200260200101516020015187602001518581518110610acf57634e487b7160e01b600052603260045260246000fd5b602002602001015160400151610dd0565b80610aea816123dc565b9150506109b7565b5060005b836040015151811015610b8257610b70846000015185604001518381518110610b2f57634e487b7160e01b600052603260045260246000fd5b60200260200101516000015186604001518481518110610b5f57634e487b7160e01b600052603260045260246000fd5b602002602001015160200151610e60565b80610b7a816123dc565b915050610af6565b506060830151515115610bd457606083015160208101515190515114610bba5760405162461bcd60e51b81526004016103819061217d565b825160608401518051602090910151610bd4929190610eed565b7fccb3b0181cc8d8090505df7a2b9d7e4c07de5f4e24c836176be4834d6f15feb4836000015184602001518560400151866060015188604051610c1b9594939291906120a7565b60405180910390a150505050565b610c3382826106f9565b61069957610c4b816001600160a01b03166014610fae565b610c56836020610fae565b604051602001610c67929190611f9c565b60408051601f198184030181529082905262461bcd60e51b82526103819160040161214a565b610c9782826106f9565b610699576000828152602081815260408083206001600160a01b03851684529091529020805460ff19166001179055610ccd3390565b6001600160a01b0316816001600160a01b0316837f2f8788117e7eff1d82e926ec794901d17c78024a50270940304540a733656f0d60405160405180910390a45050565b610d1b82826106f9565b15610699576000828152602081815260408083206001600160a01b0385168085529252808320805460ff1916905551339285917ff6391f5c32d9c69d2a47ea670b442974b53935d1edc7fd64eb21e047a839171b9190a45050565b6000610d818361118f565b9050610d8e8483836111bf565b610dca5760405162461bcd60e51b815260206004820152600d60248201526c494e56414c49445f434c41494d60981b6044820152606401610381565b50505050565b6001600160a01b038116610df65760405162461bcd60e51b8152600401610381906121a4565b604051631759616b60e11b81526001600160a01b03821690632eb2c2d690610e2890309088908890889060040161200b565b600060405180830381600087803b158015610e4257600080fd5b505af1158015610e56573d6000803e3d6000fd5b5050505050505050565b6001600160a01b038116610e865760405162461bcd60e51b8152600401610381906121a4565b604051631467dea360e11b81526001600160a01b038216906328cfbd4690610eb690309087908790600401612063565b600060405180830381600087803b158015610ed057600080fd5b505af1158015610ee4573d6000803e3d6000fd5b50505050505050565b60005b8251811015610dca576000828281518110610f1b57634e487b7160e01b600052603260045260246000fd5b602002602001015190506000848381518110610f4757634e487b7160e01b600052603260045260246000fd5b6020026020010151905060006001600160a01b0316826001600160a01b03161415610f845760405162461bcd60e51b8152600401610381906121a4565b610f996001600160a01b03831630888461127d565b50508080610fa6906123dc565b915050610ef0565b60606000610fbd83600261237a565b610fc8906002612362565b6001600160401b03811115610fed57634e487b7160e01b600052604160045260246000fd5b6040519080825280601f01601f191660200182016040528015611017576020820181803683370190505b509050600360fc1b8160008151811061104057634e487b7160e01b600052603260045260246000fd5b60200101906001600160f81b031916908160001a905350600f60fb1b8160018151811061107d57634e487b7160e01b600052603260045260246000fd5b60200101906001600160f81b031916908160001a90535060006110a184600261237a565b6110ac906001612362565b90505b6001811115611140576f181899199a1a9b1b9c1cb0b131b232b360811b85600f16601081106110ee57634e487b7160e01b600052603260045260246000fd5b1a60f81b82828151811061111257634e487b7160e01b600052603260045260246000fd5b60200101906001600160f81b031916908160001a90535060049490941c93611139816123c5565b90506110af565b5083156108255760405162461bcd60e51b815260206004820181905260248201527f537472696e67733a20686578206c656e67746820696e73756666696369656e746044820152606401610381565b6000816040516020016111a291906121db565b604051602081830303815290604052805190602001209050919050565b600081815b84518110156112725760008582815181106111ef57634e487b7160e01b600052603260045260246000fd5b602002602001015190508083101561123257604080516020810185905290810182905260600160405160208183030381529060405280519060200120925061125f565b60408051602081018390529081018490526060016040516020818303038152906040528051906020012092505b508061126a816123dc565b9150506111c4565b509093149392505050565b604080516001600160a01b038581166024830152848116604483015260648083018590528351808403909101815260849092018352602080830180516001600160e01b03166323b872dd60e01b17905283518085019094528084527f5361666545524332303a206c6f772d6c6576656c2063616c6c206661696c656490840152610dca92879291600091611315918516908490611392565b80519091501561061a57808060200190518101906113339190611cd1565b61061a5760405162461bcd60e51b815260206004820152602a60248201527f5361666545524332303a204552433230206f7065726174696f6e20646964206e6044820152691bdd081cdd58d8d9595960b21b6064820152608401610381565b60606113a184846000856113a9565b949350505050565b60608247101561140a5760405162461bcd60e51b815260206004820152602660248201527f416464726573733a20696e73756666696369656e742062616c616e636520666f6044820152651c8818d85b1b60d21b6064820152608401610381565b843b6114585760405162461bcd60e51b815260206004820152601d60248201527f416464726573733a2063616c6c20746f206e6f6e2d636f6e74726163740000006044820152606401610381565b600080866001600160a01b031685876040516114749190611f80565b60006040518083038185875af1925050503d80600081146114b1576040519150601f19603f3d011682016040523d82523d6000602084013e6114b6565b606091505b50915091506114c68282866114d1565b979650505050505050565b606083156114e0575081610825565b8251156114f05782518084602001fd5b8160405162461bcd60e51b8152600401610381919061214a565b80356001600160a01b038116811461152157600080fd5b919050565b60008083601f840112611537578182fd5b5081356001600160401b0381111561154d578182fd5b6020830191508360208260051b850101111561156857600080fd5b9250929050565b600082601f83011261157f578081fd5b8135602061159461158f8361233f565b61230f565b80838252828201915082860187848660051b89010111156115b3578586fd5b855b8581101561165d5781356001600160401b03808211156115d3578889fd5b908901906060828c03601f19018113156115eb57898afd5b6115f36122a3565b8884013583811115611603578b8cfd5b6116118e8b8388010161172e565b82525060408085013584811115611626578c8dfd5b6116348f8c8389010161172e565b8b8401525061164483860161150a565b90820152875250505092840192908401906001016115b5565b5090979650505050505050565b600082601f83011261167a578081fd5b8135602061168a61158f8361233f565b80838252828201915082860187848660051b89010111156116a9578586fd5b855b8581101561165d5781356001600160401b03808211156116c9578889fd5b908901906040828c03601f19018113156116e157898afd5b6116e96122cb565b88840135838111156116f9578b8cfd5b6117078e8b8388010161172e565b82525061171582850161150a565b818a0152875250505092840192908401906001016116ab565b600082601f83011261173e578081fd5b8135602061174e61158f8361233f565b80838252828201915082860187848660051b890101111561176d578586fd5b855b8581101561165d5781358452928401929084019060010161176f565b60008083601f84011261179c578182fd5b5081356001600160401b038111156117b2578182fd5b60208301915083602082850101111561156857600080fd5b600060a082840312156117db578081fd5b6117e36122ed565b90506117ee8261150a565b815260208201356001600160401b038082111561180a57600080fd5b6118168583860161156f565b6020840152604084013591508082111561182f57600080fd5b61183b8583860161166a565b6040840152606084013591508082111561185457600080fd5b5061186184828501611877565b6060830152506080820135608082015292915050565b600060408284031215611888578081fd5b6118906122cb565b905081356001600160401b03808211156118a957600080fd5b6118b58583860161172e565b83526020915081840135818111156118cc57600080fd5b84019050601f810185136118df57600080fd5b80356118ed61158f8261233f565b80828252848201915084840188868560051b870101111561190d57600080fd5b600094505b83851015611937576119238161150a565b835260019490940193918501918501611912565b508085870152505050505092915050565b60008060008060008060008060a0898b031215611963578384fd5b61196c8961150a565b975061197a60208a0161150a565b965060408901356001600160401b0380821115611995578586fd5b6119a18c838d01611526565b909850965060608b01359150808211156119b9578586fd5b6119c58c838d01611526565b909650945060808b01359150808211156119dd578384fd5b506119ea8b828c0161178b565b999c989b5096995094979396929594505050565b60008060008060008060808789031215611a16578384fd5b611a1f8761150a565b9550611a2d6020880161150a565b945060408701356001600160401b0380821115611a48578586fd5b611a548a838b01611526565b90965094506060890135915080821115611a6c578384fd5b50611a7989828a0161178b565b979a9699509497509295939492505050565b600080600080600060808688031215611aa2578283fd5b611aab8661150a565b9450611ab96020870161150a565b93506040860135925060608601356001600160401b03811115611ada578182fd5b611ae68882890161178b565b969995985093965092949392505050565b60008060008060008060a08789031215611b0f578384fd5b611b188761150a565b9550611b266020880161150a565b9450604087013593506060870135925060808701356001600160401b03811115611b4e578283fd5b611a7989828a0161178b565b600080600060408486031215611b6e578081fd5b611b778461150a565b925060208401356001600160401b03811115611b91578182fd5b611b9d86828701611526565b9497909650939450505050565b60008060408385031215611bbc578182fd5b611bc58361150a565b946020939093013593505050565b600080600080600060608688031215611bea578283fd5b6001600160401b038087351115611bff578384fd5b611c0c8888358901611526565b909650945060208781013582811115611c23578586fd5b8801601f81018a13611c33578586fd5b8035611c4161158f8261233f565b8082825284820191508484018d868560051b8701011115611c6057898afd5b895b84811015611c98578782351115611c77578a8bfd5b611c868f8884358901016117ca565b84529286019290860190600101611c62565b50508098505050505050604087013581811115611cb3578283fd5b611cbf89828a01611526565b979a9699509497509395949350505050565b600060208284031215611ce2578081fd5b81518015158114610825578182fd5b600060208284031215611d02578081fd5b5035919050565b60008060408385031215611d1b578182fd5b82359150611d2b6020840161150a565b90509250929050565b60008060008060608587031215611d49578182fd5b8435935060208501356001600160401b0380821115611d66578384fd5b611d72888389016117ca565b94506040870135915080821115611d87578384fd5b50611d9487828801611526565b95989497509550505050565b60008060408385031215611db2578182fd5b50508035926020909101359150565b600060208284031215611dd2578081fd5b81356001600160e01b031981168114610825578182fd5b600081518084526020808501808196508360051b81019150828601855b85811015611e6a578284038952815160608151818752611e2882880182611edd565b9150508682015186820388880152611e408282611edd565b6040938401516001600160a01b031697909301969096525098850198935090840190600101611e06565b5091979650505050505050565b600081518084526020808501808196508360051b81019150828601855b85811015611e6a578284038952815160408151818752611eb682880182611edd565b928801516001600160a01b0316968801969096525098850198935090840190600101611e94565b6000815180845260208085019450808401835b83811015611f0c57815187529582019590820190600101611ef0565b509495945050505050565b6000815160408452611f2c6040850182611edd565b602084810151868303878301528051808452908201935090918491908301905b80831015611f755784516001600160a01b03168252938301936001929092019190830190611f4c565b509695505050505050565b60008251611f92818460208701612399565b9190910192915050565b76020b1b1b2b9b9a1b7b73a3937b61d1030b1b1b7bab73a1604d1b815260008351611fce816017850160208801612399565b7001034b99036b4b9b9b4b733903937b6329607d1b6017918401918201528351611fff816028840160208801612399565b01602801949350505050565b6001600160a01b0385811682528416602082015260a06040820181905260009061203790830185611edd565b82810360608401526120498185611edd565b838103608090940193909352508152602001949350505050565b6001600160a01b0384811682528316602082015260806040820181905260009061208f90830184611edd565b82810360609093019290925281526020019392505050565b6001600160a01b038616815260a0602082018190526000906120cb90830187611de9565b82810360408401526120dd8187611e77565b905082810360608401526120f18186611f17565b9150508260808301529695505050505050565b6020808252825182820181905260009190848201906040850190845b8181101561213e578351151583529284019291840191600101612120565b50909695505050505050565b6020815260008251806020840152612169816040850160208701612399565b601f01601f19169190910160400192915050565b6020808252600d908201526c1253959053125117d253941555609a1b604082015260600190565b6020808252601d908201527f494e56414c49445f434f4e54524143545f5a45524f5f41444452455353000000604082015260600190565b602080825282516001600160a01b03168282015282015160a0604083015260009061220960c0840182611de9565b90506040840151601f19808584030160608601526122278383611e77565b92506060860151915080858403016080860152506122458282611f17565b915050608084015160a08401528091505092915050565b6000808335601e19843603018112612272578283fd5b8301803591506001600160401b0382111561228b578283fd5b6020019150600581901b360382131561156857600080fd5b604051606081016001600160401b03811182821017156122c5576122c561240d565b60405290565b604080519081016001600160401b03811182821017156122c5576122c561240d565b60405160a081016001600160401b03811182821017156122c5576122c561240d565b604051601f8201601f191681016001600160401b03811182821017156123375761233761240d565b604052919050565b60006001600160401b038211156123585761235861240d565b5060051b60200190565b60008219821115612375576123756123f7565b500190565b6000816000190483118215151615612394576123946123f7565b500290565b60005b838110156123b457818101518382015260200161239c565b83811115610dca5750506000910152565b6000816123d4576123d46123f7565b506000190190565b60006000198214156123f0576123f06123f7565b5060010190565b634e487b7160e01b600052601160045260246000fd5b634e487b7160e01b600052604160045260246000fdfea2646970667358221220cd05e7bbd8c979752589e1d471e5bae77132a24c8786c8c8bc55efbd656f5b0c64736f6c63430008040033",
  "devdoc": {
    "kind": "dev",
    "methods": {
      "addNewGiveaway(bytes32,uint256)": {
        "params": {
          "expiryTime": "The expiry time for the giveaway.",
          "merkleRoot": "The merkle root hash of the claim data."
        }
      },
      "claimMultipleTokens(bytes32,(address,(uint256[],uint256[],address)[],(uint256[],address)[],(uint256[],address[]),bytes32),bytes32[])": {
        "details": "Public function used to perform validity checks and progress to claim multiple token types in one claim.",
        "params": {
          "claim": "The claim struct containing the destination address, all items to be claimed and optional salt param.",
          "merkleRoot": "The merkle root hash for the specific set of items being claimed.",
          "proof": "The proof provided by the user performing the claim function."
        }
      },
      "claimMultipleTokensFromMultipleMerkleTree(bytes32[],(address,(uint256[],uint256[],address)[],(uint256[],address)[],(uint256[],address[]),bytes32)[],bytes32[][])": {
        "params": {
          "claims": "The array of claim structs, each containing a destination address, the giveaway items to be claimed and an optional salt param.",
          "proofs": "The proofs submitted for verification."
        }
      },
      "getClaimedStatus(address,bytes32[])": {
        "params": {
          "rootHashes": "The array of giveaway root hashes to check.",
          "user": "The user (intended token destination) address."
        },
        "returns": {
          "_0": "claimedGiveaways The array of bools confirming whether or not the giveaways relating to the root hashes provided have been claimed."
        }
      },
      "getRoleAdmin(bytes32)": {
        "details": "Returns the admin role that controls `role`. See {grantRole} and {revokeRole}. To change a role's admin, use {_setRoleAdmin}."
      },
      "grantRole(bytes32,address)": {
        "details": "Grants `role` to `account`. If `account` had not been already granted `role`, emits a {RoleGranted} event. Requirements: - the caller must have ``role``'s admin role."
      },
      "hasRole(bytes32,address)": {
        "details": "Returns `true` if `account` has been granted `role`."
      },
      "renounceRole(bytes32,address)": {
        "details": "Revokes `role` from the calling account. Roles are often managed via {grantRole} and {revokeRole}: this function's purpose is to provide a mechanism for accounts to lose their privileges if they are compromised (such as when a trusted device is misplaced). If the calling account had been granted `role`, emits a {RoleRevoked} event. Requirements: - the caller must be `account`."
      },
      "revokeRole(bytes32,address)": {
        "details": "Revokes `role` from `account`. If `account` had been granted `role`, emits a {RoleRevoked} event. Requirements: - the caller must have ``role``'s admin role."
      },
      "supportsInterface(bytes4)": {
        "details": "See {IERC165-supportsInterface}."
      }
    },
    "title": "Giveaway contract for claiming.",
    "version": 1
  },
  "userdoc": {
    "kind": "user",
    "methods": {
      "addNewGiveaway(bytes32,uint256)": {
        "notice": "Function to add a new giveaway."
      },
      "claimMultipleTokensFromMultipleMerkleTree(bytes32[],(address,(uint256[],uint256[],address)[],(uint256[],address)[],(uint256[],address[]),bytes32)[],bytes32[][])": {
        "notice": "Function to permit the claiming of multiple tokens from multiple giveaways to a reserved address."
      },
      "getClaimedStatus(address,bytes32[])": {
        "notice": "Function to check which giveaways have been claimed by a particular user."
      }
    },
    "notice": "This contract manages claims for multiple token types.",
    "version": 1
  },
  "storageLayout": {
    "storage": [
      {
        "astId": 5118,
        "contract": "contracts/MFWGiveaway.sol:MFWGiveaway",
        "label": "_roles",
        "offset": 0,
        "slot": "0",
        "type": "t_mapping(t_bytes32,t_struct(RoleData)5113_storage)"
      },
      {
        "astId": 9570,
        "contract": "contracts/MFWGiveaway.sol:MFWGiveaway",
        "label": "claimed",
        "offset": 0,
        "slot": "1",
        "type": "t_mapping(t_address,t_mapping(t_bytes32,t_bool))"
      },
      {
        "astId": 9576,
        "contract": "contracts/MFWGiveaway.sol:MFWGiveaway",
        "label": "leaves",
        "offset": 0,
        "slot": "2",
        "type": "t_mapping(t_address,t_mapping(t_bytes32,t_bool))"
      },
      {
        "astId": 9580,
        "contract": "contracts/MFWGiveaway.sol:MFWGiveaway",
        "label": "_expiryTime",
        "offset": 0,
        "slot": "3",
        "type": "t_mapping(t_bytes32,t_uint256)"
      }
    ],
    "types": {
      "t_address": {
        "encoding": "inplace",
        "label": "address",
        "numberOfBytes": "20"
      },
      "t_bool": {
        "encoding": "inplace",
        "label": "bool",
        "numberOfBytes": "1"
      },
      "t_bytes32": {
        "encoding": "inplace",
        "label": "bytes32",
        "numberOfBytes": "32"
      },
      "t_mapping(t_address,t_bool)": {
        "encoding": "mapping",
        "key": "t_address",
        "label": "mapping(address => bool)",
        "numberOfBytes": "32",
        "value": "t_bool"
      },
      "t_mapping(t_address,t_mapping(t_bytes32,t_bool))": {
        "encoding": "mapping",
        "key": "t_address",
        "label": "mapping(address => mapping(bytes32 => bool))",
        "numberOfBytes": "32",
        "value": "t_mapping(t_bytes32,t_bool)"
      },
      "t_mapping(t_bytes32,t_bool)": {
        "encoding": "mapping",
        "key": "t_bytes32",
        "label": "mapping(bytes32 => bool)",
        "numberOfBytes": "32",
        "value": "t_bool"
      },
      "t_mapping(t_bytes32,t_struct(RoleData)5113_storage)": {
        "encoding": "mapping",
        "key": "t_bytes32",
        "label": "mapping(bytes32 => struct AccessControl.RoleData)",
        "numberOfBytes": "32",
        "value": "t_struct(RoleData)5113_storage"
      },
      "t_mapping(t_bytes32,t_uint256)": {
        "encoding": "mapping",
        "key": "t_bytes32",
        "label": "mapping(bytes32 => uint256)",
        "numberOfBytes": "32",
        "value": "t_uint256"
      },
      "t_struct(RoleData)5113_storage": {
        "encoding": "inplace",
        "label": "struct AccessControl.RoleData",
        "members": [
          {
            "astId": 5110,
            "contract": "contracts/MFWGiveaway.sol:MFWGiveaway",
            "label": "members",
            "offset": 0,
            "slot": "0",
            "type": "t_mapping(t_address,t_bool)"
          },
          {
            "astId": 5112,
            "contract": "contracts/MFWGiveaway.sol:MFWGiveaway",
            "label": "adminRole",
            "offset": 0,
            "slot": "1",
            "type": "t_bytes32"
          }
        ],
        "numberOfBytes": "64"
      },
      "t_uint256": {
        "encoding": "inplace",
        "label": "uint256",
        "numberOfBytes": "32"
      }
    }
  }
}